:020000040800F2
:10000000880800203D0200085D22000855220008F3
:100010005922000839060008C92500080000000020
:10002000000000000000000000000000692200083D
:100030003D06000800000000652200086D2200084F
:10004000570200085702000857020008570200082C
:10005000570200085702000857020008570200081C
:10006000570200085702000857020008570200080C
:1000700057020008570200085702000857020008FC
:10008000570200085702000857020008000000004D
:1000900000000000000000000000000057020008FF
:1000A00057020008570200083923000857020008C9
:1000B00057020008570200085702000857020008BC
:1000C00057020008570200085702000857020008AC
:1000D00057020008BD250008570200080000000074
:1000E00057020008570200085702000800000000ED
:1000F000000000000000000000000000570200089F
:1001000000000000570200085702000857020008CC
:1001100000000000000000000000000000000000DF
:10012000570200085702000857020008570200084B
:10013000570200080000000000000000000000005E
:10014000000000000000000000000000570200084E
:10015000570200085702000857020008570200081B
:1001600057020008570200080000000000000000CD
:10017000000000000000000000000000000000007F
:10018000000000005702000800000000000000000E
:100190005702000800F002F800F041F80AA090E8C9
:1001A000000C82448344AAF10107DA4501D100F032
:1001B00036F8AFF2090EBAE80F0013F0010F18BFBE
:1001C000FB1A43F00103184780250000A02500001A
:1001D000103A24BF78C878C1FAD8520724BF30C873
:1001E00030C144BF04680C60704700000023002445
:1001F00000250026103A28BF78C1FBD8520728BF37
:1002000030C148BF0B607047642900F003810020B3
:1002100070471FB502F07FFA1FBD10B510BD00F08A
:10022000D1F91146FFF7F5FF02F0D0F900F0EFF930
:1002300003B4FFF7F2FF03BC00F0F6F9094880476A
:1002400009480047FEE7FEE7FEE7FEE7FEE7FEE7B8
:10025000FEE7FEE7FEE7FEE704480549054A064BD0
:10026000704700002523000895010008880200203F
:1002700088080020880400208804002053EA020C2B
:1002800000F069802DE9F04B4FF00006002B1FBFF6
:10029000B3FA83F503FA05F424FA05F65E4012BFBB
:1002A0001643B2FA82F502FA05F4C5F120051EBF25
:1002B00022FA05FC44EA0C04203556EA044C4FEAC5
:1002C000144418BF641C4FF000084FF0000990421E
:1002D00071EB030C39D3002919BFB1FA81F701FA88
:1002E00007F6B0FA80F700FA07F6C7F120071EBF3D
:1002F00020FA07FC46EA0C062037B6FBF4FCA7EB15
:100300000507103F07F01F0BCBF120062CFA06F66D
:100310000CFA0BFB44BFB3460026202FA4BF5E4659
:100320004FF0000B5BEA060C08BF4FF0010B19EB16
:100330000B0948EB0608ABFB027C06FB02CC0BFB6F
:1003400003CCC01B71EB0C01C1E70B4602464146D2
:100350004846BDE8F08B13B5084318BF4FF0FF3097
:100360000146AFF30080BDE81C4070470FB41CB5D8
:100370000C0007AA009007D04142A14202D32044BA
:10038000401E01E04FF0FF30074B7B44694601906F
:10039000069800F0FCF80020002C01D000990870AD
:1003A0001CBC5DF814FB0000270200002DE9F041A1
:1003B0000E460446002020622046E168884730B39C
:1003C000252805D0D4E901219047206A401CF2E796
:1003D000E168204600278847050018D0A5F14100B4
:1003E000192802D820354FF40067324629462046A6
:1003F0002760FFF709FF40B1012804D0F61D26F061
:1004000007060836D8E7361DD6E72846DAE7206A19
:10041000BDE8F0812DE9F0410646002410687529F9
:10042000314616A510D0AFF30080002802DA404212
:1004300013A507E031688A0701D512A502E0490734
:1004400004D511A5012401E0AFF3008000210A22A8
:1004500006F1240709E0B0FBF2FCB0FBF2F302FB6B
:100460001C00303078541846491C0028F3D123462C
:100470002A463046BDE8F04100F02AB800000000EE
:100480002D0000002B0000002000000010B5431CD0
:1004900002E010F8011B71B18107FAD14FF001326F
:1004A00002C88C1A8C4314EAC211F9D0C01A0A0689
:1004B00003D0C01E10BDC01A10BD0A0401D0801E9A
:1004C00010BD0902FCD0401E10BD70477047704738
:1004D0002DE9F0470D4699469246044600F124085E
:1004E0000168880604D5E06921F01001216000E070
:1004F0000120A84201DD471B00E00027A1697A190D
:1005000002EB0900081AA0612078C00602D4204638
:10051000AFF30080002608E0D4E901211AF80600B4
:100520009047206A401C761C20624E45F4DB207800
:10053000C0060AD52046AFF3008006E0D4E90121C9
:1005400030209047206A401C2062381EA7F1010726
:10055000F4DC07E0D4E9012118F805009047206A8F
:10056000401C2062281EA5F10105F3DC2046AFF3F4
:1005700000802078000602D50220BDE8F087012027
:10058000FBE7000001694A1C02610878704700B56A
:100590008FB0CDE901310021059105497944CDE9BC
:1005A000031011466846FFF701FF0FB000BD0000C1
:1005B000E5FFFFFFD1E900239A4202D2531C0B60F2
:1005C00010707047754600F02BF8AE46050069467E
:1005D000534620F00700854618B020B5FFF73CFED3
:1005E000BDE820404FF000064FF000074FF0000834
:1005F0004FF0000BAC46ACE8C009ACE8C009ACE871
:10060000C009ACE8C00921F007018D46704710B55C
:100610000446AFF300802046BDE81040FFF708BE57
:10062000004870471800002001491820ABBEFEE7C3
:100630002600020070470000FEE70000704700003F
:10064000EFF3108072B600BFFEE7000070B5866D54
:10065000044600F037F994F83510022928D10546F0
:100660002068216C026822F016020260426922F0C2
:100670008002426109B9A16C19B1016821F0080139
:100680000160016821F00101016000BF206800687D
:10069000C00715D000F016F9401B0628F6D320201D
:1006A0006065032084F83500002184F8341070BDA3
:1006B000802060650120002184F8341070BD00BFE7
:1006C000E06D3F2101FA00F0B060012084F83500B0
:1006D0000020002184F8341070BD000090F835101F
:1006E000022909D1052180F835100068016821F040
:1006F00001010160002070478021416501207047A1
:100700002DE9F04F82B000F13E4241F2000502F1C6
:10071000FF77C4F20205072243F6004E4FEAB726E0
:10072000A84208BF0422C4F2010E042E38BF4FEACB
:10073000B7220125002600274FF00008009208E0AC
:1007400008F101080437B8F1100F06F1020600F0B5
:10075000A7800C6805FA08F914EA090FF0D0D1F85F
:1007600004B003220BF0030CACF10104B240012CE5
:100770006FEA020A10D88268CC6802EA0A02B44022
:10078000224382604268CBF3001422EA090204FA91
:1007900008F42243426005E0BCF1030F02D14FF0A0
:1007A000030C20E0C2688C6802EA0A02B4402243CB
:1007B000BCF1020FC26016D16FF0030202EA5802C8
:1007C0000244D2F820C007F01C050F230C69AB408F
:1007D0002CEA030304FA05F52B431362D1F804B0A5
:1007E00001250BF0030C02680CFA06F302EA0A0278
:1007F0001A431BF4403F0260A2D0002243F6440398
:100800000192C4F202031A684FF6084C42F4804287
:100810001A601A68CFF6FF7C02F480420192019AB6
:1008200028F00302724452F80C3007F00C050F2434
:10083000AC40A343009C04FA05F52B4342F80C306E
:10084000DEF808204B6842EA090543F60C4CDC024E
:1008500058BF22EA0905CEF80850C4F2010CDCF8B2
:1008600000209C0242EA090558BF22EA0905CCF89B
:100870000050DEF804209C0342EA090558BF22EA32
:100880000905CEF80450DEF80020DB0342EA090532
:1008900058BF22EA0905CEF80050012550E700BFF5
:1008A00002B0BDE8F08F0000426902EA0103914303
:1008B00041EA034181617047002A08BF0904816150
:1008C0007047000040F28020C2F2000000687047CC
:1008D00040F20C0040F28021C2F20000C2F200019E
:1008E00000780A68104408607047000080B543F63D
:1008F0000040C4F20200016841F400710160016827
:1009000041F480610160016841F48071016003205D
:1009100000F088F80F2000F005F800F027F800201C
:1009200080BD000070B540F20C06C2F2000640F235
:1009300014013278C2F200014FF47A730968B3FBF4
:10094000F2F20446B1FBF2F1084600F013FD0F2C61
:100950004FF0010508D838B94FF0FF30214600228A
:10096000002500F033F87460284670BD82B0002086
:1009700043F640010190C4F202014A6842F4804209
:100980004A604A6802F480420192019A0090086825
:1009900040F080500860086800F080500090009897
:1009A00002B07047002848BF7047C1B200F01F0076
:1009B000012202FA00F04EF20012CEF2000242EAE8
:1009C000D10121F0030108607047000010B54EF618
:1009D0000C5CCEF2000CDCF80030C3F3022E8EF07B
:1009E0000704042C28BF0424BEF103034FF0FF3E8C
:1009F0000EFA04F438BF0023A14399400EFA03F322
:100A00009A43114300F00F0200F160430901043AD8
:100A100003F564436244002848BF02F10C031970D7
:100A200010BD00004EF60C51CEF200010A684FF6E0
:100A3000FF031A4060F30A2242F0806040F0FD702C
:100A400008607047F0B581B00446006810F0050FEB
:100A50002DD06827C4F2472743F670060020C4F261
:100A600002063860FFF72EFF054600BF56F8700CEF
:100A7000000105D5FFF726FF401B0228F6D93DE00F
:100A8000D4E90110000740EA81107061012038604C
:100A9000FFF718FF054600BF56F8700C000105D49B
:100AA000FFF710FF401B0228F6D927E020688107D6
:100AB00058D543F670060020C4F20206009056F89E
:100AC000300C47F2000740F0805046F8300C56F8E2
:100AD000300CC4F2000700F0805000900098386895
:100AE00040F480703860FFF7EDFE05463868C005B9
:100AF00008D4FFF7E7FE401B0228F7D9032001B016
:100B0000F0BD00BF306810F4407013D0E16801F40C
:100B1000407188420ED0306840F64061C4F24721EF
:100B2000012220F440700A6000220A6030603068C0
:100B3000C00727D12068E16856F8682C4FF6FF47B8
:100B400001F4407322F4F812C0F6FF770F40B3F5BA
:100B5000407F08BF3A4346F8682C32686FF31F3174
:100B600011433160000703D4002001B0F0BD00BF85
:100B7000207C40F64061C4F24721C1F8A003002068
:100B800001B0F0BDFFF79EFE054641F2883700BF79
:100B900030688007CED4FFF795FE401BB8424FF077
:100BA0000300F5D9ECE70000704700002DE9F041A3
:100BB000002800F08B8043F60808C4F202080446BF
:100BC000D8F8F8030D4600F00700884207D288F8ED
:100BD000F853D8F8F80300F00700A84276D120684F
:100BE000810717D5410705D5D8F8001041F4E05129
:100BF000C8F80010010705D5D8F8001041F460418D
:100C0000C8F80010D8F80010A26821F0F0011143D4
:100C1000C8F80010C0073FD1D8F8F80300F007006B
:100C2000A84207D988F8F853D8F8F80300F007006D
:100C3000A8424BD12068410707D5D8F80010E268D8
:100C400021F4E0511143C8F80010000708D5D8F886
:100C50000000216920F4604040EAC100C8F80000AB
:100C600000F082F8D8F8001042F23072C1F303119C
:100C7000C0F60002515C40F2140220FA01F140F289
:100C80001000C2F200000068C2F200021160FFF71B
:100C900049FE0020BDE8F0816068811E022907D26C
:100CA00058F8081C89015CBF0120BDE8F08111E003
:100CB000012807D158F8081C89035CBF0120BDE852
:100CC000F08107E058F8081C890703D40120BDE82B
:100CD000F08100BFD8F8001021F003010843C8F8E4
:100CE0000000FFF7EFFD064641F28837D8F8000014
:100CF000616800F00C00B0EB810F8DD0FFF7E2FDD2
:100D0000801BB842F2D90320BDE8F0814C20C4F228
:100D1000472001210160704740F2140043F60801AA
:100D2000C2F20000C4F202010068096842F2407297
:100D3000C1F38221C0F60002515CC8407047000038
:100D400040F2140043F60801C2F20000C4F20201AE
:100D50000068096842F24072C1F34231C0F60002F5
:100D6000515CC8407047000010B543F60404C4F25B
:100D70000204606800F00C0008280BD0042819BF9A
:100D800042F20040C0F2F40047F64000C0F27D108D
:100D900010BD00BF206821682368490247F6400162
:100DA000C0F27D1100F03F02C3F388105CBF42F235
:100DB0000041C0F2F401A1FB00010023FFF75EFA3D
:100DC00021680222C1F3014102EB4101B0FBF1F0C5
:100DD00010BD000010B543F60C04C4F202042068F4
:100DE000000658BF10BDFFF7DFFE8020A07010BDC9
:100DF0002DE9F04182B0002868D00446007843F61F
:100E00000006C007C4F202060BD0B06800F00C0068
:100E1000042840F09F803068800302D56068002875
:100E200054D0207880071AD5B06810F00C0F09D084
:100E3000B06800F00C00082840F0A68070684002FE
:100E400000F1A2803068800702D5E06801283DD11A
:100E50003068216920F0F80040EAC1003060207855
:100E6000000737D4207840074CD4A56955B3B06843
:100E700000F00C00082840F0BB80012D26D07068DF
:100E8000E16900F480028A4220D1216A00F03F0229
:100E90008A421BD147F6C071626A0140B1EB821FE2
:100EA00014D1A16A4FF6FF73C903994300F440328D
:100EB000A1F580318A4209D1E16A00F07060B0EB9F
:100EC000016F03D1002002B0BDE8F081012002B023
:100ED000BDE8F0816069002840F20000C4F24720BC
:100EE00076D00121C0F8801EFFF7ECFC054600BF5C
:100EF000706F8007B6D4FFF7E5FC401B0228F7D9D6
:100F0000DDE000BF306C10F080580AD10020019065
:100F1000306C40F080503064306C00F080500190B4
:100F2000019847F20007C4F200073868C00541D4B1
:100F3000386840F480703860FFF7C4FC054600BF95
:100F40003868C00536D4FFF7BDFC401B0228F7D92E
:100F5000B5E000BFB06800F00C00082803D170684D
:100F600040023FF558AF6068B0F5803F07D0B0F55C
:100F7000A02F40F08D80306840F4802030603068D1
:100F800040F4803030608DE0E068002852D00020CE
:100F9000C4F2472001210160FFF794FC054600BF21
:100FA000306880073FF554AFFFF78CFC401B0228E8
:100FB000F6D984E0A068012805D005284ED1306F0D
:100FC00040F004003067306F40F0010030674FE0C0
:100FD0000021C0F8801EFFF775FC0546706F800782
:100FE0007FF540AFFFF76EFC401B0228F6D966E0A4
:100FF0000027C4F2472700203866FFF763FC022D64
:1010000005460BD1306880015ED5FFF75BFC401BC5
:1010100002284FF00300F5D955E700BF3068800182
:101020007FF550AFFFF74EFC401B02284FF0030046
:10103000F4D948E70020C4F2472000210160FFF7FF
:1010400041FC0546306880077FF509AFFFF73AFCA1
:10105000401B02284FF00300F4D934E7316F002819
:1010600021F001013167316F21F0040131674DD06A
:10107000FFF728FC054641F2883700BF306F800734
:1010800056D4FFF71FFC401BB842F7D917E000BF4A
:101090003168002821F480313160316821F48021E9
:1010A00031604FD0FFF70EFC054600BF306880036B
:1010B0003FF5B7AEFFF706FC401B6428F6D90320C6
:1010C00002B0BDE8F08100BF04F11C052FCD08433C
:1010D00040EA8210D9034FF6FF729143A1F58031A7
:1010E00040EA05600843706001203866FFF7EAFBBC
:1010F000044600BF306880013FF5E4AEFFF7E2FB35
:10110000001B02284FF00300F4D9DCE6FFF7DAFBFE
:10111000054641F2883700BF306F800708D5FFF7DA
:10112000D1FB401BB8424FF00300F5D9CBE600BF1E
:10113000B8F1000F7FF499AE306C20F0805030642D
:1011400093E600BFFFF7BEFB054600BF3068800393
:101150007FF567AEFFF7B6FB401B64284FF0030036
:10116000F4D9B0E610B5006840684FEA1043C0F308
:10117000042E00F03F0CC0F34234CB7081F801E044
:1011800081F802C00C700AB1002010BDDCB2240945
:1011900004EB840403F00F0303EB4403020ACB7057
:1011A0004FEA1E1343EA830302F00F0202EB4302ED
:1011B0004A704FEA1C1242EA820200F00F0000EB74
:1011C00042008870002010BD10B50068836A4B6033
:1011D00003696FF3DF338B600068C0F30543C0F32E
:1011E000062E00F07F0CC0F380540B7081F801E0F4
:1011F00081F802C0CC700AB1002010BD020C1B099E
:1012000043EA830302F00F0202EB4302040A0A706E
:101210004FEA1E1202EB820204F00F0303EB4202BC
:101220004A704FEA1C1202EB820200F00F0000EB42
:1012300042008870002010BD002804BF01207047C4
:10124000B0B50446407F20B900202077204600F04A
:101250006BF8022060772168CA20486253204862F8
:10126000C868400614D4C86840F08000C860FFF722
:1012700029FB2168CA6852060AD40546FFF722FBFB
:10128000401BB0F57A7F47D82168C8684006F5D57D
:1012900088684FF6BF72CFF68F7210408860D4E92D
:1012A000010CD4E90335626928438D681043284353
:1012B00088600B61086940EA0C400861C86820F04A
:1012C0008000C8608868800618D4C86820F0A00034
:1012D000C860FFF7F7FA05462168C86880060DD494
:1012E000FFF7F0FA401BB0F57A7FF5D9042060775C
:1012F00021680120FF224A62B0BD00BF086C20F4C3
:1013000080200864A0690A6C10430864012060779B
:101310000020FF224A62B0BD042060772168C868BF
:101320000120FF224A62B0BD80B586B0006842F657
:101330000001C4F2000188424FF00000CDE9040032
:10134000CDE9020002D006B080BD00BF02200190AE
:101350004FF48070049001A8FFF774FB002818BFB9
:10136000FFF76EF940F63C60C4F2472001210160AE
:1013700006B080BD411E0020B0EB116F1CBF0120E4
:1013800070474EF21002CEF2000251604EF6235129
:10139000CEF20001F0230B700721906011607047BE
:1013A0007047000070470000002804BF012070470C
:1013B00010B5044690F83D0028B9002084F83C00A0
:1013C000204600F08FF8022084F83D00206840F2AB
:1013D000FF730268C4F2000340F2000C9842C4F2AA
:1013E000010C1DDD40F60001C4F20001884220D04E
:1013F00060451ED040F60041C4F20001884218D07A
:101400004FF6FF71C4F2000188421CDC984225DCD3
:10141000B0F1804F3AD040F20041C4F2000133E015
:10142000B0F1804F05D040F20041C4F20001884283
:10143000E6D1A16822F070020A434FF6FF71C4F2B0
:1014400000018842E2DD44F2FF31C4F2010188422A
:1014500010DC60451AD044F2000113E040F60001B0
:10146000C4F20001884211D040F60041C4F20001EC
:101470000AE000BF44F60001C4F20101884205D031
:1014800044F20041C4F20101884203D1216922F4EF
:1014900040720A43A36922F08001D4F804E0E268B4
:1014A000194360450160C262C0F828E002D1616959
:1014B000CCF8301001214161002084F8461084F8F6
:1014C0003E1084F83F1084F8401084F8411084F8EE
:1014D000421084F8431084F8441084F8451084F8CE
:1014E0003D1010BD80B582B0006844F60001C4F222
:1014F000010188421CBF02B080BD0020019043F66C
:101500004400C4F202000168002241F4802101601D
:101510000068002100F48020019001981A20FFF754
:1015200055FA1A2002B0BDE88040FFF73BBA000030
:1015300090F83D1001291CBF01207047022180F85E
:101540003D10006840F6FF32C168C4F200029042CC
:1015500041F00101C1600FDCB0F1804F1DD040F2BD
:101560000041C4F20001884217D040F60001C4F2E5
:101570000001884211D017E040F60041C4F200019A
:1015800088420AD044F20001C4F20101884204D02A
:101590000021C4F20101884206D1816801F00701EF
:1015A000062904BF00207047016841F00101016075
:1015B000002070477047000010B5016804460869B4
:1015C000800744BFC8685FEA807039D40869400763
:1015D00044BFC8685FEA40703ED40869000744BF52
:1015E000C8685FEA007045D40869C00644BFC8688F
:1015F0005FEAC0604AD40869C0071CBFC8685FEAD8
:10160000C07051D10869000644BFC8685FEA006035
:1016100052D40869400644BFC8685FEA406053D4AA
:101620000869800646BFC8685FEA806010BD6FF039
:10163000200220460A61BDE81040FFF7B3BE00BF9C
:101640006FF002000861012020778869800743D08D
:101650002046FFF7AFFF45E06FF00400086102206D
:101660002077886910F4407F40D02046FFF7A2FF22
:1016700042E000BF6FF00800086104202077C869CD
:1016800080073DD02046FFF795FF3FE06FF0100048
:10169000086108202077C86910F4407F3AD02046BE
:1016A000FFF788FF3CE000BF6FF0010008612046B3
:1016B00000F03EF82168A5E76FF080000861204641
:1016C000FFF76EFE2168A4E76FF040000861204636
:1016D00000F030F82168A3E7204600F025F8204606
:1016E00000F024F82168002020776FE7204600F002
:1016F0001BF8204600F01AF82168002020776CE7DC
:10170000204600F011F8204600F010F82168002073
:10171000207769E7204600F007F8204600F006F839
:1017200021680020207766E77047000070470000BE
:10173000704700007047000081B090F83E30202BC9
:101740000CD100294FF0010318BF002A02D118461E
:1017500001B0704790F83C30012B03D102231846AA
:1017600001B070470123036381628285C285002234
:101770002221026480F83E100369016880F83C2051
:101780001BB1CA6842F48072CA604A6942F0010221
:101790004A61CA6842F02002CA60026B012A2FD156
:1017A000002200920A68009249680091009900BFE7
:1017B000016851E8031F026841F0100142E8031379
:1017C00013B3016851E8031F026841F0100142E8B9
:1017D0000313CBB1016851E8031F026841F0100107
:1017E00042E8031383B1016851E8031F026841F026
:1017F000100142E80313002B4FF00003D8D1A6E7F5
:101800000123184601B070470023184601B0704705
:10181000B0B540F23C22C2F20002904249D10C46DF
:1018200040F2F10040F20001C2F20000C2F20001F9
:1018300002780B789A4213D143784D78AB420FD19E
:1018400083788D78AB420BD140F23C20C2F200008D
:1018500033A11C224FF47A7300F094FB29E000BFFF
:10186000CB789A4212D142780B799A420ED1807885
:10187000497988420AD140F23C20C2F200001FA1FF
:1018800024224FF4FA6300F07DFB12E040F23C2585
:10189000C2F200050EA128462C224FF47A7300F004
:1018A00071FB40F2F101C2F200012846224600F02D
:1018B000ADFC40F23C2040F2F101C2F20000C2F265
:1018C00000014FF48072BDE8B040FFF735BF00BFA4
:1018D0000A0D204765742074686520666F6C6C6F14
:1018E00077696E67206D6573736167652066726FD7
:1018F0006D207573617274313A2000000A0D20D09A
:1019000092D18BD0B1D0BED18020D18DD182D0BE2A
:1019100020D0B8D0BBD0BBD18ED0B7D0B8D18F003B
:101920000A0D204E6576657220676F6E6E612067C6
:1019300069766520796F752075700000704700002A
:10194000B0B582B0044600680168C368426901F01E
:101950002F05202D03F0200506D12DB1204602B021
:10196000BDE8B04000F032BD5FEA017C1EBF02F06E
:10197000010E03F4907212EB0E0253D1226B012A76
:1019800005D111F0100218BF13F0100236D10A066B
:1019900022D513F080021FD094F83D1021293FD1A9
:1019A000A168B1F5805F03D12169002900F072823E
:1019B000216A4A1C226209784160E18C01390A04DB
:1019C000E1842DD1C16821F08001C160C16841F07E
:1019D0004001C16002B0B0BD490621D513F04001FD
:1019E0001ED0C16821F04001C1602021204684F84A
:1019F0003D1002B0BDE8B04000F02ABC00210191CA
:101A0000016801914168019101994069400613D430
:101A1000A08DE18DE28D002A18BF884240F0BE8182
:101A200002B0B0BDCA0718BF13F4807240F0BA808C
:101A30004A0700F1BD80C2E0A16B0868426893B21A
:101A4000002BEDD0A08D8342EAD2E285C969B1F5C1
:101A5000807F00F09D80206850E8030F216820F40B
:101A6000807041E80302DAB1206850E8030F216872
:101A700020F4807041E8030292B1206850E8030F1F
:101A8000216820F4807041E803024AB1206850E8E0
:101A9000030F216820F4807041E80302002ADAD1A4
:101AA000206850E8050F216820F0010041E8050298
:101AB000DAB1206850E8050F216820F0010041E804
:101AC000050292B1206850E8050F216820F001005E
:101AD00041E805024AB1206850E8050F216820F06E
:101AE000010041E80502002ADAD1206850E8050F1C
:101AF000216820F0400041E80502DAB1206850E892
:101B0000050F216820F0400041E8050292B12068ED
:101B100050E8050F216820F0400041E805024AB175
:101B2000206850E8050F216820F0400041E80502D8
:101B3000002ADAD1202084F83E00002020632068AB
:101B400050E8030F216820F0100041E80302DAB1E9
:101B5000206850E8030F216820F0100041E80302DC
:101B600092B1206850E8030F216820F0100041E88E
:101B700003024AB1206850E8030F216820F01000EA
:101B800041E80302002ADAD1A06BFEF75FFDA08DC9
:101B9000E18D401A81B2204602B0BDE8B040FFF7A7
:101BA00037BE00BF226C42F0010222644A0706D50C
:101BB000BEF1000F03D0226C42F0020222648A07B9
:101BC00006D5BEF1000F03D0226C42F0040222645D
:101BD000BCF1000F09D545EA0E02B2FA82F25209B1
:101BE00003D1226C42F008022264226C002A3FF4E6
:101BF00017AF11F0200118BF002D03D0204600F0D0
:101C0000E5FB20684069216C00F0400001F008010C
:101C1000401800F0B58000BF206850E8030F21682D
:101C200020F4907041E80302BAB3206850E8030F33
:101C3000216820F4907041E8030272B3206850E8F4
:101C4000030F216820F4907041E803022AB3206852
:101C500050E8030F216820F4907041E80302002A45
:101C6000DAD11AE0206850E8050F216820F0010061
:101C700041E80502DAB1206850E8050F216820F03C
:101C8000010041E8050292B1206850E8050F216883
:101C900020F0010041E805024AB1206850E8050F34
:101CA000216820F0010041E80502002ADAD1206B0A
:101CB000012824D1206850E8030F216820F010008B
:101CC00041E80302DAB1206850E8030F216820F0F0
:101CD000100041E8030292B1206850E8030F216828
:101CE00020F0100041E803024AB1206850E8030FD9
:101CF000216820F0100041E80302002ADAD12020F8
:101D000084F83E00002020632068406940063FD5EB
:101D1000206850E8050F216820F0400041E80502E6
:101D2000DAB1206850E8050F216820F0400041E852
:101D3000050292B1206850E8050F216820F04000AC
:101D400041E805024AB1206850E8050F216820F0FB
:101D5000400041E80502002ADAD1A06BC0B142F28E
:101D6000C131C0F600010165FEF7B8FC00283FF460
:101D700057AEA06B016D02B0BDE8B040084700BF90
:101D80002046FFF7DBFD0020206402B0B0BD00BF9D
:101D9000204602B0BDE8B040FFF7D0BD401A216830
:101DA00051E8031F226821F4907142E80313DBB16C
:101DB000216851E8031F226821F4907142E803135F
:101DC00093B1216851E8031F226821F4907142E821
:101DD00003134BB1216851E8031F226821F490716D
:101DE00042E80313002BDAD1216851E8051F22686D
:101DF00021F0010142E80513DBB1216851E8051F1C
:101E0000226821F0010142E8051393B1216851E8ED
:101E1000051F226821F0010142E805134BB121683A
:101E200051E8051F226821F0010142E80513002B4B
:101E3000DAD1202184F83E1000212163216851E885
:101E4000031F226821F0100142E80313002B3FF426
:101E5000A1AE216851E8031F226821F0100142E879
:101E60000313002B3FF496AE216851E8031F22684C
:101E700021F0100142E80313002B3FF48BAE2168E0
:101E800051E8031F226821F0100142E80313002BE0
:101E9000D4D17FE6216A31F8022B6FF35F224260D2
:101EA00021628AE5002804BF0120704710B504466E
:101EB00090F83D0028B9002084F83C00204600F04E
:101EC00021F8242084F83D002068C16821F40051E5
:101ED000C160204600F0FAFA2068016921F49041BF
:101EE0000161416921F02A014161C16841F4005159
:101EF000C16000202021206484F83D1084F83E1049
:101F000010BD000080B586B0016841F20000C4F247
:101F10000100814202D006B080BD00BF002143F61F
:101F200030020191C4F20202536900F5744043F09B
:101F300010035361536903F010030193019B019156
:101F4000136843F002031360126802F00202019268
:101F5000019AC02201920222CDE9022103210491BB
:101F60000721059101A9FEF7CBFB252000210022C6
:101F7000FEF72CFD2520FEF715FD06B080BD000004
:101F8000704700002DE9F04381B0044690F83D0011
:101F900020280DD10F4600294FF0010000F0DD8010
:101FA0001646002A00F0D98094F83C00012803D19D
:101FB000022001B0BDE8F083012084F83C0000203D
:101FC000206421201D4684F83D00FEF77BFCA6849A
:101FD000E684A1680646B1F5805F03D12069002838
:101FE00000F01081B8460027002084F83C00E18C06
:101FF0002068002900F0908005F101090DE000BF84
:10200000B8F1000F28D018F8011B4160E18C0139AC
:10201000E184E18C002900F07F8001680906EFD49B
:10202000B9F1000F0AD0FDB1FEF74CFC801BA842AD
:102030001AD8206801680906F6D5E1E701680906A3
:10204000DED4016809065CBF01685FEA0161D7D48C
:1020500001680906F2D5D3E737F8021B4FF00008F4
:102060006FF35F21D1E700BF206850E8030F2168BC
:1020700020F4D07041E80302BAB3206850E8030F9F
:10208000216820F4D07041E8030272B3206850E860
:10209000030F216820F4D07041E803022AB32068BE
:1020A00050E8030F216820F4D07041E80302002AB1
:1020B000DAD11AE0206850E8050F216820F001000D
:1020C00041E80502DAB1206850E8050F216820F0E8
:1020D000010041E8050292B1206850E8050F21682F
:1020E00020F0010041E805024AB1206850E8050FE0
:1020F000216820F0010041E80502002ADAD1202001
:1021000084F83D0084F83E00002084F83C00032061
:1021100001B0BDE8F08300BF0168490619D4FDB1E4
:10212000691C0DD10168490613D4016849065CBFDA
:1021300001685FEA41610CD401684906F2D508E004
:10214000FEF7C0FB801BA8420AD820680068400642
:10215000F6D5202084F83D00002001B0BDE8F083D2
:10216000206850E8030F216820F4D07041E8030292
:10217000E2B3206850E8030F216820F4D07041E8F2
:1021800003029AB3206850E8030F216820F4D0704E
:1021900041E8030252B3206850E8030F216820F49D
:1021A000D07041E80302002ADAD11FE0206850E82D
:1021B000050F216820F0010041E80502002A9ED0A9
:1021C000206850E8050F216820F0010041E8050271
:1021D000002A3FF494AF206850E8050F216820F0F2
:1021E000010041E80502002A3FF489AF206850E869
:1021F000050F216820F0010041E80502002AD5D131
:102200007DE700BF4FF00008EEE60000034690F8BF
:102210003D0020280AD100294FF0010018BF002AF4
:1022200000D1704793F83C00012801D1022070478B
:102230001962002021219A84DA84186483F83D1001
:10224000196883F83C00CA6842F08002CA6070478F
:1022500070470000FEE70000FEE70000FEF7BAFD51
:10226000FEE700007047000070470000FEF730BB3B
:10227000B0B592B0002443F640000B94CDE9094478
:102280000594CDE90344CDE901440094C4F2020071
:102290000168022541F080510160006800F0805023
:1022A0000090009847F200000094C4F2000001681A
:1022B00065F38F310160006800F4404000900098A1
:1022C000052006904FF480300790012008904FF4CD
:1022D00080000D9019200E90A820CDE90F05042054
:1022E000119006A80C95FEF783FD28B1EFF310803E
:1022F00072B600BFFEE700BF0F20CDE901054FF425
:102300008050CDE9040401A802210394FEF74EFC9D
:1023100020B1EFF3108072B6FEE700BFFEF7F6FCC7
:1023200012B0B0BD4EF68850CEF20000016841F404
:102330007001016070470000F0B583B040F2F41006
:10234000C2F20000FFF738F940F60000C4F20200C4
:102350004FF40051FEF7A8FA40F27804C2F20004EC
:1023600004F11807211D38460022FEF72DFF607981
:102370002379A57904F1380600900DA23046412159
:102380000195FDF7F3FF3046FEF780F882B240F288
:102390003C20C2F2000031464FF47A73FFF7F2FDA1
:1023A00038462146002203B0BDE8F040FEF7DABE11
:1023B0000A0D54696D652025643A25643A25640048
:1023C000806B0021C185C184FFF7B8BA81B090F855
:1023D0003E10222921D183680246B3F5805F09D1DE
:1023E00052F8281F52F8183C002B63D003685B6832
:1023F0000AE000BF52F8281F13B90369002BF5D07B
:1024000003685B6803F07F030B7011680131116092
:10241000C18D01390A04C18502D001B0704700BFE7
:102420000168CA6822F02002CA60CA6822F4807279
:10243000CA604A6922F001024A61202180F83E10F8
:10244000016B01293ED10021016300BF016851E801
:10245000031F026821F0100142E80313DBB1016899
:1024600051E8031F026821F0100142E8031393B101
:10247000016851E8031F026821F0100142E80313CC
:102480004BB1016851E8031F026821F0100142E8D6
:102490000313002BDAD101680A68D20606D50022A0
:1024A00000920A680092496800910099818D01B0FC
:1024B000FFF7AEB9026852686FF35F2221F8022B72
:1024C0008162A5E701B0FFF75BBD000010B50446CF
:1024D0000068D4E902C22369016921F44051114323
:1024E0000161626943EA0C01E3691143C26819435F
:1024F00049F20C639A431143C1604169A26921F416
:10250000407141F20043114340F48062C4F2010380
:102510009A42416102D1FEF713FC01E0FEF7FCFB99
:10252000E16963681922B1F5004FA0FB020123D1D4
:102530005A00DB0FFDF7A2FE48F21F51C5F2EB1166
:10254000A0FB01235A094FF69C73C0F6FF7303F1F9
:10255000805302FB0300322303EBC000A0FB010108
:102560004FF4F87000EA111000EB0210C1F34211B1
:1025700008442168886010BD9A009B0FFDF77EFE1D
:1025800048F21F51C5F2EB11A0FB01235A094FF687
:102590009C73C0F6FF7302FB0300322303EB0010B1
:1025A000A0FB0101F02000EA511000EB0210C1F382
:1025B000431108442168886010BD000040F23C20AF
:1025C000C2F20000FFF7BCB9FEE7000086B040F69B
:1025D0000004C4F20204FEF789F9FFF749FE002562
:1025E00043F6300005950095C4F202000168002210
:1025F00041F00401016001684FF4005601F004014C
:10260000009100990095016841F080010160016826
:1026100001F08001009100990095016841F00101ED
:102620000160016801F001010091009900950168C5
:1026300041F00201016000684FF4005100F0020017
:10264000009000982046FEF737F90120CDE90205F9
:1026500001A9204601960495FEF752F840F23C206D
:10266000A4F57841C2F200000C234FF4165280E822
:102670002600C0E90355C0E90535C561FFF712FC26
:1026800020B1EFF3108072B6FEE700BF40F2F41005
:10269000A4F54041C2F2000042F2107342F2CF02B0
:1026A00080E82600C0E903358561FEF77DFE28B18C
:1026B000EFF3108072B600BFFEE700BF40F2780073
:1026C000A4F5F031C2F2000040F8181F002100F11B
:1026D000040C7F22FF238CE80E00C0E90411816105
:1026E000FEF7AAFD20B1EFF3108072B6FEE700BF3F
:1026F00040F23C2040F2F101C2F20000C2F20001BF
:102700004FF48072FFF718F840F2F410C2F20000A4
:10271000FEF70EFFFEE7F1EE100A4FF6FF71C0F272
:10272000C03120EA010040F04070E1EE100A70472D
:102730000000000000000000010203040607080971
:1027400000000000010203046827000800000020C8
:1027500018000000D00100088027000818000020A1
:1027600070080000EC01000872636BD180D183D146
:102770008100000001000000100000000024F400AF
:040000050800019559
:00000001FF
